{
  "_format": "hh-sol-artifact-1",
  "contractName": "Election",
  "sourceName": "contracts/Election.sol",
  "abi": [
    {
      "inputs": [
        {
          "internalType": "address",
          "name": "_admin",
          "type": "address"
        },
        {
          "internalType": "string[]",
          "name": "candidateNames",
          "type": "string[]"
        },
        {
          "internalType": "uint256",
          "name": "_totalVoters",
          "type": "uint256"
        }
      ],
      "stateMutability": "nonpayable",
      "type": "constructor"
    },
    {
      "inputs": [],
      "name": "admin",
      "outputs": [
        {
          "internalType": "address",
          "name": "",
          "type": "address"
        }
      ],
      "stateMutability": "view",
      "type": "function"
    },
    {
      "inputs": [
        {
          "internalType": "uint256",
          "name": "",
          "type": "uint256"
        }
      ],
      "name": "candidates",
      "outputs": [
        {
          "internalType": "string",
          "name": "name",
          "type": "string"
        },
        {
          "internalType": "uint256",
          "name": "voteCount",
          "type": "uint256"
        }
      ],
      "stateMutability": "view",
      "type": "function"
    },
    {
      "inputs": [],
      "name": "currentVoters",
      "outputs": [
        {
          "internalType": "uint256",
          "name": "",
          "type": "uint256"
        }
      ],
      "stateMutability": "view",
      "type": "function"
    },
    {
      "inputs": [],
      "name": "electionEnded",
      "outputs": [
        {
          "internalType": "bool",
          "name": "",
          "type": "bool"
        }
      ],
      "stateMutability": "view",
      "type": "function"
    },
    {
      "inputs": [],
      "name": "endElection",
      "outputs": [],
      "stateMutability": "nonpayable",
      "type": "function"
    },
    {
      "inputs": [
        {
          "internalType": "uint256",
          "name": "index",
          "type": "uint256"
        }
      ],
      "name": "getCandidate",
      "outputs": [
        {
          "internalType": "string",
          "name": "name",
          "type": "string"
        },
        {
          "internalType": "uint256",
          "name": "voteCount",
          "type": "uint256"
        }
      ],
      "stateMutability": "view",
      "type": "function"
    },
    {
      "inputs": [],
      "name": "getRegisteredVoters",
      "outputs": [
        {
          "internalType": "address[]",
          "name": "",
          "type": "address[]"
        }
      ],
      "stateMutability": "view",
      "type": "function"
    },
    {
      "inputs": [],
      "name": "getTotalCandidates",
      "outputs": [
        {
          "internalType": "uint256",
          "name": "",
          "type": "uint256"
        }
      ],
      "stateMutability": "view",
      "type": "function"
    },
    {
      "inputs": [
        {
          "internalType": "string",
          "name": "name",
          "type": "string"
        }
      ],
      "name": "register",
      "outputs": [],
      "stateMutability": "nonpayable",
      "type": "function"
    },
    {
      "inputs": [
        {
          "internalType": "uint256",
          "name": "",
          "type": "uint256"
        }
      ],
      "name": "registeredVoters",
      "outputs": [
        {
          "internalType": "address",
          "name": "",
          "type": "address"
        }
      ],
      "stateMutability": "view",
      "type": "function"
    },
    {
      "inputs": [],
      "name": "totalVoters",
      "outputs": [
        {
          "internalType": "uint256",
          "name": "",
          "type": "uint256"
        }
      ],
      "stateMutability": "view",
      "type": "function"
    },
    {
      "inputs": [
        {
          "internalType": "uint256",
          "name": "candidateIndex",
          "type": "uint256"
        }
      ],
      "name": "vote",
      "outputs": [],
      "stateMutability": "nonpayable",
      "type": "function"
    },
    {
      "inputs": [
        {
          "internalType": "address",
          "name": "",
          "type": "address"
        }
      ],
      "name": "voters",
      "outputs": [
        {
          "internalType": "bool",
          "name": "registered",
          "type": "bool"
        },
        {
          "internalType": "bool",
          "name": "voted",
          "type": "bool"
        },
        {
          "internalType": "string",
          "name": "name",
          "type": "string"
        }
      ],
      "stateMutability": "view",
      "type": "function"
    }
  ],
  "bytecode": "0x608060405234801561001057600080fd5b5060405161221f38038061221f83398181016040528101906100329190610407565b826000806101000a81548173ffffffffffffffffffffffffffffffffffffffff021916908373ffffffffffffffffffffffffffffffffffffffff1602179055508060018190555060005b825181101561010f57600560405180604001604052808584815181106100a5576100a4610476565b5b602002602001015181526020016000815250908060018154018082558091505060019003906000526020600020906002020160009091909190915060008201518160000190816100f591906106bc565b50602082015181600101555050808060010191505061007c565b5050505061078e565b6000604051905090565b600080fd5b600080fd5b600073ffffffffffffffffffffffffffffffffffffffff82169050919050565b60006101578261012c565b9050919050565b6101678161014c565b811461017257600080fd5b50565b6000815190506101848161015e565b92915050565b600080fd5b6000601f19601f8301169050919050565b7f4e487b7100000000000000000000000000000000000000000000000000000000600052604160045260246000fd5b6101d88261018f565b810181811067ffffffffffffffff821117156101f7576101f66101a0565b5b80604052505050565b600061020a610118565b905061021682826101cf565b919050565b600067ffffffffffffffff821115610236576102356101a0565b5b602082029050602081019050919050565b600080fd5b600080fd5b600067ffffffffffffffff82111561026c5761026b6101a0565b5b6102758261018f565b9050602081019050919050565b60005b838110156102a0578082015181840152602081019050610285565b60008484015250505050565b60006102bf6102ba84610251565b610200565b9050828152602081018484840111156102db576102da61024c565b5b6102e6848285610282565b509392505050565b600082601f8301126103035761030261018a565b5b81516103138482602086016102ac565b91505092915050565b600061032f61032a8461021b565b610200565b9050808382526020820190506020840283018581111561035257610351610247565b5b835b8181101561039957805167ffffffffffffffff8111156103775761037661018a565b5b80860161038489826102ee565b85526020850194505050602081019050610354565b5050509392505050565b600082601f8301126103b8576103b761018a565b5b81516103c884826020860161031c565b91505092915050565b6000819050919050565b6103e4816103d1565b81146103ef57600080fd5b50565b600081519050610401816103db565b92915050565b6000806000606084860312156104205761041f610122565b5b600061042e86828701610175565b935050602084015167ffffffffffffffff81111561044f5761044e610127565b5b61045b868287016103a3565b925050604061046c868287016103f2565b9150509250925092565b7f4e487b7100000000000000000000000000000000000000000000000000000000600052603260045260246000fd5b600081519050919050565b7f4e487b7100000000000000000000000000000000000000000000000000000000600052602260045260246000fd5b600060028204905060018216806104f757607f821691505b60208210810361050a576105096104b0565b5b50919050565b60008190508160005260206000209050919050565b60006020601f8301049050919050565b600082821b905092915050565b6000600883026105727fffffffffffffffffffffffffffffffffffffffffffffffffffffffffffffffff82610535565b61057c8683610535565b95508019841693508086168417925050509392505050565b6000819050919050565b60006105b96105b46105af846103d1565b610594565b6103d1565b9050919050565b6000819050919050565b6105d38361059e565b6105e76105df826105c0565b848454610542565b825550505050565b600090565b6105fc6105ef565b6106078184846105ca565b505050565b5b8181101561062b576106206000826105f4565b60018101905061060d565b5050565b601f8211156106705761064181610510565b61064a84610525565b81016020851015610659578190505b61066d61066585610525565b83018261060c565b50505b505050565b600082821c905092915050565b600061069360001984600802610675565b1980831691505092915050565b60006106ac8383610682565b9150826002028217905092915050565b6106c5826104a5565b67ffffffffffffffff8111156106de576106dd6101a0565b5b6106e882546104df565b6106f382828561062f565b600060209050601f8311600181146107265760008415610714578287015190505b61071e85826106a0565b865550610786565b601f19841661073486610510565b60005b8281101561075c57848901518255600182019150602085019450602081019050610737565b868310156107795784890151610775601f891682610682565b8355505b6001600288020188555050505b505050505050565b611a828061079d6000396000f3fe608060405234801561001057600080fd5b50600436106100cf5760003560e01c806359f784681161008c578063bc10bad211610066578063bc10bad214610218578063c94ca9e314610236578063f2c298be14610254578063f851a44014610270576100cf565b806359f78468146101be5780635f5300ff146101c8578063a3ec138d146101e6576100cf565b80630121b93f146100d45780630deb56ab146100f05780632436e06b1461010e5780632bc4a6e71461013e5780633477ee2e1461015c57806335b8e8201461018d575b600080fd5b6100ee60048036038101906100e99190610d5b565b61028e565b005b6100f861047f565b6040516101059190610d97565b60405180910390f35b61012860048036038101906101239190610d5b565b61048c565b6040516101359190610df3565b60405180910390f35b6101466104cb565b6040516101539190610ecc565b60405180910390f35b61017660048036038101906101719190610d5b565b610559565b604051610184929190610f7e565b60405180910390f35b6101a760048036038101906101a29190610d5b565b610615565b6040516101b5929190610f7e565b60405180910390f35b6101c6610725565b005b6101d061097f565b6040516101dd9190610d97565b60405180910390f35b61020060048036038101906101fb9190610fda565b610985565b60405161020f93929190611022565b60405180910390f35b610220610a51565b60405161022d9190610d97565b60405180910390f35b61023e610a57565b60405161024b9190611060565b60405180910390f35b61026e600480360381019061026991906110e0565b610a6a565b005b610278610cf7565b6040516102859190610df3565b60405180910390f35b600360009054906101000a900460ff16156102de576040517f08c379a00000000000000000000000000000000000000000000000000000000081526004016102d590611179565b60405180910390fd5b6000600460003373ffffffffffffffffffffffffffffffffffffffff1673ffffffffffffffffffffffffffffffffffffffff16815260200190815260200160002090508060000160009054906101000a900460ff16610372576040517f08c379a0000000000000000000000000000000000000000000000000000000008152600401610369906111e5565b60405180910390fd5b8060000160019054906101000a900460ff16156103c4576040517f08c379a00000000000000000000000000000000000000000000000000000000081526004016103bb90611251565b60405180910390fd5b600580549050821061040b576040517f08c379a0000000000000000000000000000000000000000000000000000000008152600401610402906112bd565b60405180910390fd5b6005828154811061041f5761041e6112dd565b5b906000526020600020906002020160010160008154809291906104419061133b565b919050555060018160000160016101000a81548160ff021916908315150217905550600260008154809291906104769061133b565b91905055505050565b6000600580549050905090565b6006818154811061049c57600080fd5b906000526020600020016000915054906101000a900473ffffffffffffffffffffffffffffffffffffffff1681565b6060600680548060200260200160405190810160405280929190818152602001828054801561054f57602002820191906000526020600020905b8160009054906101000a900473ffffffffffffffffffffffffffffffffffffffff1673ffffffffffffffffffffffffffffffffffffffff1681526020019060010190808311610505575b5050505050905090565b6005818154811061056957600080fd5b906000526020600020906002020160009150905080600001805461058c906113b2565b80601f01602080910402602001604051908101604052809291908181526020018280546105b8906113b2565b80156106055780601f106105da57610100808354040283529160200191610605565b820191906000526020600020905b8154815290600101906020018083116105e857829003601f168201915b5050505050908060010154905082565b606060006005805490508310610660576040517f08c379a00000000000000000000000000000000000000000000000000000000081526004016106579061142f565b60405180910390fd5b600060058481548110610676576106756112dd565b5b9060005260206000209060020201905080600001816001015481805461069b906113b2565b80601f01602080910402602001604051908101604052809291908181526020018280546106c7906113b2565b80156107145780601f106106e957610100808354040283529160200191610714565b820191906000526020600020905b8154815290600101906020018083116106f757829003601f168201915b505050505091509250925050915091565b60008054906101000a900473ffffffffffffffffffffffffffffffffffffffff1673ffffffffffffffffffffffffffffffffffffffff163373ffffffffffffffffffffffffffffffffffffffff16146107b3576040517f08c379a00000000000000000000000000000000000000000000000000000000081526004016107aa9061149b565b60405180910390fd5b600360009054906101000a900460ff1615610803576040517f08c379a00000000000000000000000000000000000000000000000000000000081526004016107fa90611507565b60405180910390fd5b603360015460646002546108179190611527565b6108219190611598565b1015610862576040517f08c379a000000000000000000000000000000000000000000000000000000000815260040161085990611615565b60405180910390fd5b60008060005b60058054905081101561091c57826005828154811061088a576108896112dd565b5b90600052602060002090600202016001015411156108d357600581815481106108b6576108b56112dd565b5b90600052602060002090600202016001015492506001915061090f565b82600582815481106108e8576108e76112dd565b5b9060005260206000209060020201600101540361090e57818061090a9061133b565b9250505b5b8080600101915050610868565b5060018114610960576040517f08c379a0000000000000000000000000000000000000000000000000000000008152600401610957906116a7565b60405180910390fd5b6001600360006101000a81548160ff0219169083151502179055505050565b60015481565b60046020528060005260406000206000915090508060000160009054906101000a900460ff16908060000160019054906101000a900460ff16908060010180546109ce906113b2565b80601f01602080910402602001604051908101604052809291908181526020018280546109fa906113b2565b8015610a475780601f10610a1c57610100808354040283529160200191610a47565b820191906000526020600020905b815481529060010190602001808311610a2a57829003601f168201915b5050505050905083565b60025481565b600360009054906101000a900460ff1681565b600360009054906101000a900460ff1615610aba576040517f08c379a0000000000000000000000000000000000000000000000000000000008152600401610ab190611179565b60405180910390fd5b600460003373ffffffffffffffffffffffffffffffffffffffff1673ffffffffffffffffffffffffffffffffffffffff16815260200190815260200160002060000160009054906101000a900460ff1615610b4a576040517f08c379a0000000000000000000000000000000000000000000000000000000008152600401610b4190611713565b60405180910390fd5b60015460068054905010610b93576040517f08c379a0000000000000000000000000000000000000000000000000000000008152600401610b8a9061177f565b60405180910390fd5b604051806060016040528060011515815260200160001515815260200183838080601f016020809104026020016040519081016040528093929190818152602001838380828437600081840152601f19601f82011690508083019250505050505050815250600460003373ffffffffffffffffffffffffffffffffffffffff1673ffffffffffffffffffffffffffffffffffffffff16815260200190815260200160002060008201518160000160006101000a81548160ff02191690831515021790555060208201518160000160016101000a81548160ff0219169083151502179055506040820151816001019081610c8c919061197a565b509050506006339080600181540180825580915050600190039060005260206000200160009091909190916101000a81548173ffffffffffffffffffffffffffffffffffffffff021916908373ffffffffffffffffffffffffffffffffffffffff1602179055505050565b60008054906101000a900473ffffffffffffffffffffffffffffffffffffffff1681565b600080fd5b600080fd5b6000819050919050565b610d3881610d25565b8114610d4357600080fd5b50565b600081359050610d5581610d2f565b92915050565b600060208284031215610d7157610d70610d1b565b5b6000610d7f84828501610d46565b91505092915050565b610d9181610d25565b82525050565b6000602082019050610dac6000830184610d88565b92915050565b600073ffffffffffffffffffffffffffffffffffffffff82169050919050565b6000610ddd82610db2565b9050919050565b610ded81610dd2565b82525050565b6000602082019050610e086000830184610de4565b92915050565b600081519050919050565b600082825260208201905092915050565b6000819050602082019050919050565b610e4381610dd2565b82525050565b6000610e558383610e3a565b60208301905092915050565b6000602082019050919050565b6000610e7982610e0e565b610e838185610e19565b9350610e8e83610e2a565b8060005b83811015610ebf578151610ea68882610e49565b9750610eb183610e61565b925050600181019050610e92565b5085935050505092915050565b60006020820190508181036000830152610ee68184610e6e565b905092915050565b600081519050919050565b600082825260208201905092915050565b60005b83811015610f28578082015181840152602081019050610f0d565b60008484015250505050565b6000601f19601f8301169050919050565b6000610f5082610eee565b610f5a8185610ef9565b9350610f6a818560208601610f0a565b610f7381610f34565b840191505092915050565b60006040820190508181036000830152610f988185610f45565b9050610fa76020830184610d88565b9392505050565b610fb781610dd2565b8114610fc257600080fd5b50565b600081359050610fd481610fae565b92915050565b600060208284031215610ff057610fef610d1b565b5b6000610ffe84828501610fc5565b91505092915050565b60008115159050919050565b61101c81611007565b82525050565b60006060820190506110376000830186611013565b6110446020830185611013565b81810360408301526110568184610f45565b9050949350505050565b60006020820190506110756000830184611013565b92915050565b600080fd5b600080fd5b600080fd5b60008083601f8401126110a05761109f61107b565b5b8235905067ffffffffffffffff8111156110bd576110bc611080565b5b6020830191508360018202830111156110d9576110d8611085565b5b9250929050565b600080602083850312156110f7576110f6610d1b565b5b600083013567ffffffffffffffff81111561111557611114610d20565b5b6111218582860161108a565b92509250509250929050565b7f456c656374696f6e20656e646564000000000000000000000000000000000000600082015250565b6000611163600e83610ef9565b915061116e8261112d565b602082019050919050565b6000602082019050818103600083015261119281611156565b9050919050565b7f4e6f742072656769737465726564000000000000000000000000000000000000600082015250565b60006111cf600e83610ef9565b91506111da82611199565b602082019050919050565b600060208201905081810360008301526111fe816111c2565b9050919050565b7f416c726561647920766f74656400000000000000000000000000000000000000600082015250565b600061123b600d83610ef9565b915061124682611205565b602082019050919050565b6000602082019050818103600083015261126a8161122e565b9050919050565b7f496e76616c69642063616e646964617465000000000000000000000000000000600082015250565b60006112a7601183610ef9565b91506112b282611271565b602082019050919050565b600060208201905081810360008301526112d68161129a565b9050919050565b7f4e487b7100000000000000000000000000000000000000000000000000000000600052603260045260246000fd5b7f4e487b7100000000000000000000000000000000000000000000000000000000600052601160045260246000fd5b600061134682610d25565b91507fffffffffffffffffffffffffffffffffffffffffffffffffffffffffffffffff82036113785761137761130c565b5b600182019050919050565b7f4e487b7100000000000000000000000000000000000000000000000000000000600052602260045260246000fd5b600060028204905060018216806113ca57607f821691505b6020821081036113dd576113dc611383565b5b50919050565b7f496e76616c696420696e64657800000000000000000000000000000000000000600082015250565b6000611419600d83610ef9565b9150611424826113e3565b602082019050919050565b600060208201905081810360008301526114488161140c565b9050919050565b7f4f6e6c792061646d696e00000000000000000000000000000000000000000000600082015250565b6000611485600a83610ef9565b91506114908261144f565b602082019050919050565b600060208201905081810360008301526114b481611478565b9050919050565b7f416c726561647920656e64656400000000000000000000000000000000000000600082015250565b60006114f1600d83610ef9565b91506114fc826114bb565b602082019050919050565b60006020820190508181036000830152611520816114e4565b9050919050565b600061153282610d25565b915061153d83610d25565b925082820261154b81610d25565b915082820484148315176115625761156161130c565b5b5092915050565b7f4e487b7100000000000000000000000000000000000000000000000000000000600052601260045260246000fd5b60006115a382610d25565b91506115ae83610d25565b9250826115be576115bd611569565b5b828204905092915050565b7f4e6f7420656e6f7567682070617274696369706174696f6e0000000000000000600082015250565b60006115ff601883610ef9565b915061160a826115c9565b602082019050919050565b6000602082019050818103600083015261162e816115f2565b9050919050565b7f5469653a2043616e6e6f7420656e64207769746820657175616c20746f70207660008201527f6f74657300000000000000000000000000000000000000000000000000000000602082015250565b6000611691602483610ef9565b915061169c82611635565b604082019050919050565b600060208201905081810360008301526116c081611684565b9050919050565b7f416c726561647920726567697374657265640000000000000000000000000000600082015250565b60006116fd601283610ef9565b9150611708826116c7565b602082019050919050565b6000602082019050818103600083015261172c816116f0565b9050919050565b7f4d617820766f7465727320726561636865640000000000000000000000000000600082015250565b6000611769601283610ef9565b915061177482611733565b602082019050919050565b600060208201905081810360008301526117988161175c565b9050919050565b7f4e487b7100000000000000000000000000000000000000000000000000000000600052604160045260246000fd5b60008190508160005260206000209050919050565b60006020601f8301049050919050565b600082821b905092915050565b6000600883026118307fffffffffffffffffffffffffffffffffffffffffffffffffffffffffffffffff826117f3565b61183a86836117f3565b95508019841693508086168417925050509392505050565b6000819050919050565b600061187761187261186d84610d25565b611852565b610d25565b9050919050565b6000819050919050565b6118918361185c565b6118a561189d8261187e565b848454611800565b825550505050565b600090565b6118ba6118ad565b6118c5818484611888565b505050565b5b818110156118e9576118de6000826118b2565b6001810190506118cb565b5050565b601f82111561192e576118ff816117ce565b611908846117e3565b81016020851015611917578190505b61192b611923856117e3565b8301826118ca565b50505b505050565b600082821c905092915050565b600061195160001984600802611933565b1980831691505092915050565b600061196a8383611940565b9150826002028217905092915050565b61198382610eee565b67ffffffffffffffff81111561199c5761199b61179f565b5b6119a682546113b2565b6119b18282856118ed565b600060209050601f8311600181146119e457600084156119d2578287015190505b6119dc858261195e565b865550611a44565b601f1984166119f2866117ce565b60005b82811015611a1a578489015182556001820191506020850194506020810190506119f5565b86831015611a375784890151611a33601f891682611940565b8355505b6001600288020188555050505b50505050505056fea2646970667358221220d0e80084ea8f7b3d5f122a8c983248fdb35f2c3f16010ed78051a4f230f0e24964736f6c634300081c0033",
  "linkReferences": {},
  "deployedLinkReferences": {}
}